:1000000045C0000060C000005EC000005CC0000091
:100010005AC0000058C0000056C0000054C0000084
:1000200052C0000050C000004EC000004CC0000094
:100030004AC000009CC2000046C0000044C000004E
:1000400042C0000040C000003EC000003CC00000B4
:100050003AC0000038C0000036C0000034C00000C4
:1000600032C0000030C000002EC000002CC00000D4
:100070002AC0000028C0000026C0000024C00000E4
:1000800022C0000020C000001EC0000011241FBEBE
:10009000CFEFD0E4DEBFCDBF11E0A0E0B1E0E0E4FF
:1000A000FCE000E00BBF02C007900D92A031B10749
:1000B000D9F727E0A0E1B1E001C01D92AE34B2074C
:1000C000E1F7F3D0BBC59CCFCF93DF93EC010AD40B
:1000D0008091100190911101892B31F485E191E01B
:1000E000909311018093100120911201309113011E
:1000F000C9018C0F9D1F8B3D45E0940770F42817B4
:10010000390770F4C0911001D0911101C20FD31FB3
:10011000909313018093120105C0C0E0D0E002C0AB
:10012000C0E0D0E09CD4CE01DF91CF910895089536
:10013000FC010396928381832FEF3FEF3483238367
:10014000968385839087878310820895FC011186AA
:1001500010860895CF93DF939C01FB01DC0111967B
:10016000CD91DC911297D383C2838C819D8195833D
:1001700084838C819D81DC0113967C936E9312970E
:100180007D836C8331872087F90180818F5F808335
:10019000DF91CF910895CF93DF93EB01488159818F
:1001A0004F3F2FEF520721F4FC01A781B0850DC00E
:1001B000DC01139601C0DF011296ED91FC911397BB
:1001C0002081318142175307B0F71296ED91FC91CF
:1001D0001397FB83EA83D583C483BD83AC831396D3
:1001E000DC93CE93129799878887FC0120812F5F3B
:1001F0002083DF91CF910895CF93DF93FC01A085F9
:10020000B185C281D381848195819D838C83C48192
:10021000D581828193819B838A8311968D919C9154
:100220001297E817F90731F48481958112969C930F
:100230008E931197118610868C9181508C938C919E
:10024000DF91CF91089580914D07882319F0813077
:1002500019F005C01BB804C085E18BB901C01BB8FB
:1002600080914D07882319F010924D07089581E081
:1002700080934D07089510924D07E5DF88EE93E0D7
:1002800067D4FBCFEF92FF920F93E12CF12C082F54
:1002900020E030E045E550E060E071E08BE391E084
:1002A000FCD10F91FF90EF90089511B88FEF82B9B4
:1002B0008AB981E0E7DFEED280E090E0089531E195
:1002C000FC013083319722E220833197A3E3A0839E
:1002D000319760833197708331971082319760E84E
:1002E000608331971082319762E06083319763E0D9
:1002F0006083319764E06083319765E06083319774
:1003000066E06083319767E06083319768E06083DF
:10031000319769E06083319760E160833197308382
:10032000319732E13083319733E13083319734E1D3
:100330003083319735E13083319736E1308331971F
:1003400037E13083319738E13083319739E13083B9
:10035000319730E23083319731E230833197208317
:10036000319723E22083319740833197508331972F
:1003700026E22083319727E22083319728E22083E9
:10038000319729E22083319720E32083319721E3BD
:10039000208386970895109289008CE780938800C7
:1003A0008BE080938100EFE6F0E0808182608083C3
:1003B000A0914B07B0914C07CD91CDBFDD91DEBF31
:1003C000FF91EF91DF91CF91BF91AF919F918F916D
:1003D0007F916F915F914F913F912F911F910F915D
:1003E000FF90EF90DF90CF90BF90AF909F908F9055
:1003F0007F906F905F904F903F902F901F900F9045
:100400000FBE0F90089581E008950F920FB6F894F3
:100410000F921F9211242F923F924F925F926F92F0
:100420007F928F929F92AF92BF92CF92DF92EF9284
:10043000FF920F931F932F933F934F935F936F936D
:100440007F938F939F93AF93BF93CF93DF93EF935C
:10045000FF93A0914B07B0914C070DB60D920EB6CD
:100460000D9286D3A0914B07B0914C07CD91CDBF93
:10047000DD91DEBFFF91EF91DF91CF91BF91AF9101
:100480009F918F917F916F915F914F913F912F91AC
:100490001F910F91FF90EF90DF90CF90BF90AF90A2
:1004A0009F908F907F906F905F904F903F902F9094
:1004B0001F900F900FBE0F9008950F920FB6F894F3
:1004C0000F921F9211242F923F924F925F926F9240
:1004D0007F928F929F92AF92BF92CF92DF92EF92D4
:1004E000FF920F931F932F933F934F935F936F93BD
:1004F0007F938F939F93AF93BF93CF93DF93EF93AC
:10050000FF93A0914B07B0914C070DB60D920EB61C
:100510000D92EED181112CD3A0914B07B0914C07D5
:10052000CD91CDBFDD91DEBFFF91EF91DF91CF91F6
:10053000BF91AF919F918F917F916F915F914F91FB
:100540003F912F911F910F91FF90EF90DF90CF90EF
:10055000BF90AF909F908F907F906F905F904F90E3
:100560003F902F901F900F900FBE0F900895A5DF22
:100570001895E0911307F09114078081811107C04D
:100580008FEF9FEF9093F4068093F3060895E09128
:100590001307F09114070580F681E02D0680F7819E
:1005A000E02D828193819093F4068093F306089561
:1005B0000FEF16E00F2EF7E2EF2EF7E0FF2EF02DF3
:1005C0008091FE06882311F10FB6F8940F92D8019E
:1005D0001596ED91FC911697C681D781CE010296B2
:1005E0000BDE8091FD0681508093FD068091FE0612
:1005F00081508093FE060F900FBE8F89988D97DDF6
:10060000CE0195DD8091FE068111DECFF70180815C
:100610008230B0F2FADED4CF0F931F93CF93DF93E3
:10062000EC010091FB061091FC0680914B07909124
:100630004C070296E1DDC00FD11FE0914B07F0910E
:100640004C07D383C283C017D10760F460914B0776
:1006500070914C0780911107909112076E5F7F4F48
:100660009ADD16C060914B0770914C07809113077B
:10067000909114076E5F7F4F8EDD8091F30690910D
:10068000F406C817D90720F4D093F406C093F306F4
:10069000DF91CF911F910F9108954F925F926F92CA
:1006A0007F928F929F92AF92BF92CF92DF92EF9202
:1006B000FF920F93CF93DF934C016B015A012901F5
:1006C000CA0102DD3C01892B09F4D3C086E290E027
:1006D000FBDCEC01892B59F0788E6F8A81E0A81A37
:1006E000B108A60CB71CC114D10421F41FC0C3016A
:1006F0001EDDBFC0D6018C91898F8C918823A1F01B
:10070000AE01465E5F4FF6013196B8E0CB0ED11CCC
:10071000CF012191DA012D93AD01DC018C91882369
:1007200019F0EC15FD05A1F718A201C0198E0430CF
:1007300008F003E00E8B6E01B2E0CB0ED11CC601B7
:1007400005DDCE010C9602DDD987C88784E090E0F4
:10075000801B91099D878C87DB8BCA8B19A21AA2FB
:100760001BA21CA21DA2A201B401C501A8DD998390
:100770008883E114F10419F0F701D183C0830FB627
:10078000F8940F928091FD068F5F8093FD06809113
:100790004B0790914C07892B69F5D0934C07C09378
:1007A0004B078091FD068130A9F587E297E0C0DC18
:1007B00080E397E0BDDC89E397E0BADC82E497E070
:1007C000B7DC8EE197E0B4DC85E197E0B1DC88E04E
:1007D00097E0AEDC8FEF96E0ABDC8EE197E0909394
:1007E00014078093130785E197E090931207809395
:1007F000110710C08091F90681110CC0E0914B07E0
:10080000F0914C0796898E89891720F0D0934C0778
:10081000C0934B078091F5068F5F8093F5068E8914
:100820009091FA06981710F48093FA0690E09C01D4
:10083000220F331F220F331F220F331F820F931FEC
:10084000B601895D984F86DC0F900FBE8091F90646
:10085000882359F0E0914B07F0914C0796898E89D7
:10086000981728F4D2DD81E005C081E003C081E063
:1008700001C08FEFDF91CF910F91FF90EF90DF904C
:10088000CF90BF90AF909F908F907F906F905F9030
:100890004F900895EF92FF920F930F2EF1EFEF2EEE
:1008A000F6E0FF2EF02D00E020E030E045E550E0DE
:1008B0006BE071E088ED92E0F0DE813079F4F8943D
:1008C0008FEF9FEF9093F4068093F30681E080937F
:1008D000F9061092FC061092FB065DDD0F91FF9069
:1008E000EF9008958091F0068F5F8093F006089551
:1008F000CF92DF92EF92FF920F931F93CF93DF93EC
:100900008091F006811195C0E090FB06F090FC0606
:100910008FEFE81AF80AF092FC06E092FB06E11469
:10092000F104B1F4809113079091140720911107FD
:1009300030911207309314072093130790931207F6
:10094000809311078091F6068F5F8093F60611DE83
:100950008091F3069091F406E816F90610F4D12C74
:1009600050C0D12CCC24C394E0911307F09114070C
:100970008081811107C08FEF9FEF9093F4068093E1
:10098000F3063FC0E0911307F09114070580F6814C
:10099000E02DC681D7818A819B81E816F90628F46B
:1009A0009093F4068093F3062CC08E010E5F1F4FC8
:1009B000C80122DC8C899D89892B19F0CE010C9607
:1009C0001BDC8E899091FA06981710F48093FA0632
:1009D00090E09C01220F331F220F331F220F331F81
:1009E000820F931FB801895D984FB4DBE0914B07EC
:1009F000F0914C079E898689981708F4B5CFDC2CB6
:100A0000B3CFE0914B07F0914C07868990E0FC0151
:100A1000EE0FFF1FEE0FFF1FEE0FFF1F8E0F9F1F2A
:100A2000FC01E95DF84F8081823048F0DD24D394E9
:100A300006C08091F8068F5F8093F806D12C8091D4
:100A4000F706882311F0DD24D3948D2DDF91CF910B
:100A50001F910F91FF90EF90DF90CF900895DF925C
:100A6000EF92FF920F931F93CF93DF930FB6F894FB
:100A70000F928091F00681508093F0068091F006ED
:100A8000811159C08091FD06811130C057C0D70136
:100A90001596ED91FC911697C681D781CE010C96E3
:100AA000ABDB8E010E5F1F4FC801A6DB8E899091D4
:100AB000FA06981710F48093FA0690E09C01220F32
:100AC000331F220F331F220F331F820F931FB801D2
:100AD000895D984F3FDBE0914B07F0914C079E8971
:100AE0008689981768F0D092F7060AC0C0E0D0E077
:100AF0000F2EF8E0EF2EF7E0FF2EF02DDD24D3943B
:100B0000F70180818111C3CFCD2B09F032DDC09177
:100B1000F806CC2349F0D1E0EBDE8111D093F70643
:100B2000C150D1F71092F8068091F706882329F07A
:100B30006CDC81E003C080E001C080E00F900FBE5C
:100B4000DF91CF911F910F91FF90EF90DF9008956B
:100B5000CF93DF93EC01892B39F0C4DE60E0CE0146
:100B60005BDD7DDF811101C050DCDF91CF91089505
:100B70008091F006882321F081E08093F7060895A4
:100B80001092F7062091FA06822F90E0FC01EE0FFA
:100B9000FF1FEE0FFF1FEE0FFF1FE80FF91FE95DAC
:100BA000F84F3081311111C02150822F90E0FC01AB
:100BB000EE0FFF1FEE0FFF1FEE0FFF1FE80FF91FD5
:100BC000E95DF84F3081332379F3AC01440F551FB1
:100BD000440F551F440F551F480F591FDA01A95DD7
:100BE000B84F1196ED91FC9112970280F381E02DA0
:100BF0001296FC93EE931197465D584FE417F50754
:100C000029F442815381FD0152834183FC01EE0F9F
:100C1000FF1FEE0FFF1FEE0FFF1F8E0F9F1FFC0128
:100C2000E95DF84F0180F281E02D868197819093F4
:100C30004C0780934B072093FA060895F894FFCF52
:100C40004C65645365635461736B0049444C4500C3
:00000001FF
