S01900006D6F683030385F6C6162345F70617274322E7372656325
S113000045C0000060C000005EC000005CC000008D
S11300105AC0000058C0000056C0000054C0000080
S113002052C0000050C000004EC000004CC0000090
S11300304AC00000FAC2000046C0000044C00000EC
S113004042C0000040C000003EC000003CC00000B0
S11300503AC0000038C0000036C0000034C00000C0
S113006032C0000030C000002EC000002CC00000D0
S11300702AC0000028C0000026C0000024C00000E0
S113008022C0000020C000001EC0000011241FBEBA
S1130090CFEFD0E4DEBFCDBF11E0A0E0B1E0ECEFE4
S11300A0FCE000E00BBF02C007900D92A031B10745
S11300B0D9F727E0A0E1B1E001C01D92A235B20753
S11300C0E1F751D119C69CCFCF93DF93EC0168D4EB
S11300D08091100190911101892B31F485E191E017
S11300E0909311018093100120911201309113011A
S11300F0C9018C0F9D1F8B3D45E0940770F42817B0
S1130100390770F4C0911001D0911101C20FD31FAF
S1130110909313018093120105C0C0E0D0E002C0A7
S1130120C0E0D0E0FAD4CE01DF91CF9108950895D4
S1130130FC010396928381832FEF3FEF3483238363
S1130140968385839087878310820895FC011186A6
S113015010860895CF93DF939C01FB01DC01119677
S1130160CD91DC911297D383C2838C819D81958339
S113017084838C819D81DC0113967C936E9312970A
S11301807D836C8331872087F90180818F5F808331
S1130190DF91CF910895CF93DF93EB01488159818B
S11301A04F3F2FEF520721F4FC01A781B0850DC00A
S11301B0DC01139601C0DF011296ED91FC911397B7
S11301C02081318142175307B0F71296ED91FC91CB
S11301D01397FB83EA83D583C483BD83AC831396CF
S11301E0DC93CE93129799878887FC0120812F5F37
S11301F02083DF91CF910895CF93DF93FC01A085F5
S1130200B185C281D381848195819D838C83C4818E
S1130210D581828193819B838A8311968D919C9150
S11302201297E817F90731F48481958112969C930B
S11302308E931197118610868C9181508C938C919A
S1130240DF91CF91089580915007882319F0813070
S113025019F003C0589801C0589A80915007882318
S113026019F0813029F0089581E0809350070895B2
S113027010925007089580914F07882319F0813018
S113028019F003C05A9801C05A9A80914F078823E5
S113029019F0813079F008958091F106823031F4BB
S11302A081E080934F071092F10608958F5F809349
S11302B0F10608958091F106823029F410924F07D7
S11302C01092F10608958F5F8093F106089580914E
S11302D05107882319F0813019F003C05C9801C0DC
S11302E05C9A80915107882319F0813079F0089540
S11302F08091F006853031F481E0809351071092AB
S1130300F00608958F5F8093F00608958091F006BB
S1130310853029F4109251071092F00608958F5FEA
S11303208093F00608951092500710924F07109290
S1130330510789DFA0DFCBDF84EF91E067D4F9CFE9
S1130340EF92FF920F93E12CF12C082F20E030E084
S113035045E550E060E071E083E991E0FCD10F9164
S1130360FF90EF90089511B88FEF82B98AB981E0B8
S1130370E7DFEED280E090E0089531E1FC013083C4
S1130380319722E220833197A3E3A08331976083DE
S11303903197708331971082319760E86083319789
S11303A01082319762E06083319763E06083319714
S11303B064E06083319765E06083319766E0608331
S11303C0319767E06083319768E06083319769E033
S11303D06083319760E1608331973083319732E1F4
S11303E03083319733E13083319734E1308331976F
S11303F035E13083319736E13083319737E130830B
S1130400319738E13083319739E13083319730E2E5
S11304103083319731E2308331972083319723E25F
S113042020833197408331975083319726E220838C
S1130430319727E22083319728E22083319729E2FC
S11304402083319720E32083319721E3208386970B
S11304500895109289008CE7809388008BE0809344
S11304608100EFE6F0E0808182608083A0914D07F7
S1130470B0914E07CD91CDBFDD91DEBFFF91EF91DD
S1130480DF91CF91BF91AF919F918F917F916F91A8
S11304905F914F913F912F911F910F91FF90EF909A
S11304A0DF90CF90BF90AF909F908F907F906F9090
S11304B05F904F903F902F901F900F900FBE0F9022
S11304C0089581E008950F920FB6F8940F921F9249
S11304D011242F923F924F925F926F927F928F924C
S11304E09F92AF92BF92CF92DF92EF92FF920F93BF
S11304F01F932F933F934F935F936F937F938F93A8
S11305009F93AF93BF93CF93DF93EF93FF93A09108
S11305104D07B0914E070DB60D920EB60D9286D3CF
S1130520A0914D07B0914E07CD91CDBFDD91DEBFB7
S1130530FF91EF91DF91CF91BF91AF919F918F91F7
S11305407F916F915F914F913F912F911F910F91E7
S1130550FF90EF90DF90CF90BF90AF909F908F90DF
S11305607F906F905F904F903F902F901F900F90CF
S11305700FBE0F9008950F920FB6F8940F921F922A
S113058011242F923F924F925F926F927F928F929B
S11305909F92AF92BF92CF92DF92EF92FF920F930E
S11305A01F932F933F934F935F936F937F938F93F7
S11305B09F93AF93BF93CF93DF93EF93FF93A09158
S11305C04D07B0914E070DB60D920EB60D92EED1B9
S11305D081112CD3A0914D07B0914E07CD91CDBF81
S11305E0DD91DEBFFF91EF91DF91CF91BF91AF918C
S11305F09F918F917F916F915F914F913F912F9137
S11306001F910F91FF90EF90DF90CF90BF90AF902C
S11306109F908F907F906F905F904F903F902F901E
S11306201F900F900FBE0F900895A5DF1895E091CD
S11306301507F09116078081811107C08FEF9FEF96
S11306409093F6068093F5060895E0911507F091CE
S113065016070580F681E02D0680F781E02D828162
S113066093819093F6068093F506089501E017E0D0
S11306700F2EF9E2EF2EF7E0FF2EF02D8091000708
S1130680882311F10FB6F8940F92D8011596ED91C5
S1130690FC911697C681D781CE010296ADDD80917B
S11306A0FF0681508093FF0680910007815080935C
S11306B000070F900FBE8F89988D39DDCE0137DD8D
S11306C0809100078111DECFF70180818230B0F282
S11306D0FADED4CF0F931F93CF93DF93EC010091F5
S11306E0FD061091FE0680914D0790914E070296EB
S11306F083DDC00FD11FE0914D07F0914E07D383E6
S1130700C283C017D10760F460914D0770914E0702
S113071080911307909114076E5F7F4F3CDD16C0E4
S113072060914D0770914E078091150790911607BF
S11307306E5F7F4F30DD8091F5069091F606C81705
S1130740D90720F4D093F606C093F506DF91CF9134
S11307501F910F9108954F925F926F927F928F92A3
S11307609F92AF92BF92CF92DF92EF92FF920F933C
S1130770CF93DF934C016B015A012901CA01A4DC18
S11307803C01892B09F4D3C086E290E09DDCEC01A6
S1130790892B59F0788E6F8A81E0A81AB108A60CCB
S11307A0B71CC114D10421F41FC0C301C0DCBFC0F5
S11307B0D6018C91898F8C918823A1F0AE01465E7D
S11307C05F4FF6013196B8E0CB0ED11CCF012191D9
S11307D0DA012D93AD01DC018C91882319F0EC151D
S11307E0FD05A1F718A201C0198E043008F003E03A
S11307F00E8B6E01B2E0CB0ED11CC601A7DCCE017C
S11308000C96A4DCD987C88784E090E0801B91090A
S11308109D878C87DB8BCA8B19A21AA21BA21CA2F0
S11308201DA2A201B401C501A8DD99838883E11446
S1130830F10419F0F701D183C0830FB6F8940F9235
S11308408091FF068F5F8093FF0680914D07909102
S11308504E07892B69F5D0934E07C0934D078091BD
S1130860FF068130A9F589E297E062DC82E397E034
S11308705FDC8BE397E05CDC84E497E059DC80E2A6
S113088097E056DC87E197E053DC8AE097E050DCA0
S113089081E097E04DDC80E297E090931607809327
S11308A0150787E197E0909314078093130710C00E
S11308B08091FB0681110CC0E0914D07F0914E0729
S11308C096898E89891720F0D0934E07C0934D07DF
S11308D08091F7068F5F8093F7068E899091FC06CE
S11308E0981710F48093FC0690E09C01220F331FAC
S11308F0220F331F220F331F820F931FB601875D10
S1130900984F28DC0F900FBE8091FB06882359F086
S1130910E0914D07F0914E0796898E89981728F437
S1130920D2DD81E005C081E003C081E001C08FEF2A
S1130930DF91CF910F91FF90EF90DF90CF90BF9018
S1130940AF909F908F907F906F905F904F9008959D
S1130950EF92FF920F930F2EF3EFEF2EF6E0FF2EA0
S1130960F02D00E020E030E045E550E06BE071E080
S113097086E393E0F0DE813079F4F8948FEF9FEF13
S11309809093F6068093F50681E08093FB0610921F
S1130990FE061092FD065DDD0F91FF90EF90089525
S11309A08091F2068F5F8093F2060895CF92DF92D2
S11309B0EF92FF920F931F93CF93DF938091F206F0
S11309C0811195C0E090FD06F090FE068FEFE81AC5
S11309D0F80AF092FE06E092FD06E114F104B1F487
S11309E080911507909116072091130730911407F1
S11309F030931607209315079093140780931307D9
S1130A008091F8068F5F8093F80611DE8091F506D9
S1130A109091F606E816F90610F4D12C50C0D12CAA
S1130A20CC24C394E0911507F091160780818111BD
S1130A3007C08FEF9FEF9093F6068093F5063FC0B3
S1130A40E0911507F09116070580F681E02DC68127
S1130A50D7818A819B81E816F90628F49093F606DB
S1130A608093F5062CC08E010E5F1F4FC801C4DBB6
S1130A708C899D89892B19F0CE010C96BDDB8E895A
S1130A809091FC06981710F48093FC0690E09C016A
S1130A90220F331F220F331F220F331F820F931F86
S1130AA0B801875D984F56DBE0914D07F0914E07F2
S1130AB09E898689981708F4B5CFDC2CB3CFE091D2
S1130AC04D07F0914E07868990E0FC01EE0FFF1F61
S1130AD0EE0FFF1FEE0FFF1F8E0F9F1FFC01E75D40
S1130AE0F84F8081823048F0DD24D39406C0809191
S1130AF0FA068F5F8093FA06D12C8091F906882339
S1130B0011F0DD24D3948D2DDF91CF911F910F919E
S1130B10FF90EF90DF90CF900895DF92EF92FF92D5
S1130B200F931F93CF93DF930FB6F8940F92809196
S1130B30F20681508093F2068091F206811159C029
S1130B408091FF06811130C057C0D7011596ED91F1
S1130B50FC911697C681D781CE010C964DDB8E0190
S1130B600E5F1F4FC80148DB8E899091FC069817D1
S1130B7010F48093FC0690E09C01220F331F220F97
S1130B80331F220F331F820F931FB801875D984FC5
S1130B90E1DAE0914D07F0914E079E898689981716
S1130BA068F0D092F9060AC0C0E0D0E00F2EFAE057
S1130BB0EF2EF7E0FF2EF02DDD24D394F701808192
S1130BC08111C3CFCD2B09F032DDC091FA06CC23BD
S1130BD049F0D1E0EBDE8111D093F906C150D1F791
S1130BE01092FA068091F906882329F06CDC81E0E2
S1130BF003C080E001C080E00F900FBEDF91CF9171
S1130C001F910F91FF90EF90DF900895CF93DF93A2
S1130C10EC01892B39F0C4DE60E0CE015BDD7DDFC1
S1130C20811101C050DCDF91CF9108958091F206CB
S1130C30882321F081E08093F90608951092F90643
S1130C402091FC06822F90E0FC01EE0FFF1FEE0FB7
S1130C50FF1FEE0FFF1FE80FF91FE75DF84F30810C
S1130C60311111C02150822F90E0FC01EE0FFF1FC3
S1130C70EE0FFF1FEE0FFF1FE80FF91FE75DF84FA0
S1130C803081332379F3AC01440F551F440F551FB2
S1130C90440F551F480F591FDA01A75DB84F11962D
S1130CA0ED91FC9112970280F381E02D1296FC9352
S1130CB0EE931197445D584FE417F50729F44281E8
S1130CC05381FD0152834183FC01EE0FFF1FEE0FA0
S1130CD0FF1FEE0FFF1F8E0F9F1FFC01E75DF84FF4
S1130CE00180F281E02D8681978190934E07809355
S10F0CF04D072093FC060895F894FFCFF4
S1130CFC4C65645365635461736B0049444C450003
S9030000FC
